:100000000C9461000C942E020C9407020C947E0058
:100010000C947E000C947E000C947E000C947E0068
:100020000C947E000C947E000C947E000C947E0058
:100030000C947E000C947E000C947E000C947E0048
:100040000C94BD010C947E000C947E000C947E00F8
:100050000C947E000C947E000C947E000C947E0028
:100060000C947E000C947E00000000002400270009
:100070002A0000000000250028002B0000000000DE
:1000800023002600290004040404040404040202DA
:100090000202020203030303030301020408102007
:1000A0004080010204081020010204081020000012
:1000B0000008000201000003040700000000000027
:1000C000000011241FBECFEFD8E0DEBFCDBF11E08E
:1000D000A0E0B1E0E6E5F7E002C005900D92A630A1
:1000E000B107D9F721E0A6E0B1E001C01D92A4322A
:1000F000B207E1F70E9455020C94A9030C9400008A
:10010000833081F028F4813099F08230A1F0089595
:100110008730A9F08830B9F08430D1F48091800024
:100120008F7D03C0809180008F7780938000089539
:1001300084B58F7702C084B58F7D84BD089580918A
:10014000B0008F7703C08091B0008F7D8093B000A6
:1001500008951F93CF93DF93282F30E0F901E255E4
:10016000FF4F8491F901E656FF4FD491F901EA5708
:10017000FF4FC491CC23C9F0162F81110E9480003B
:10018000EC2FF0E0EE0FFF1FEE58FF4FA591B4915A
:100190008FB7F894111105C09C91ED2FE095E923DC
:1001A00002C0EC91ED2BEC938FBFDF91CF911F91AB
:1001B0000895CF93DF9390E0FC01E656FF4F249122
:1001C000FC01EA57FF4F8491882361F190E0880F8A
:1001D000991FFC01E859FF4FC591D491FC01EE58DD
:1001E000FF4FA591B491611109C09FB7F894888120
:1001F000209582238883EC912E230BC0623061F41A
:100200009FB7F8943881822F809583238883EC915F
:100210002E2B2C939FBF06C08FB7F894E8812E2B0E
:1002200028838FBFDF91CF9108952FB7F894609105
:1002300013017091140180911501909116012FBF47
:10024000089508950F931F930E94150100910A01CC
:1002500010910B0120910C0130910D01DC01CB01BB
:10026000801B910BA20BB30B4097A105B10568F061
:100270000E94150160930A0170930B0180930C0199
:1002800090930D0181E080931B011F910F910895C0
:100290000F931F930E941501009106011091070111
:1002A0002091080130910901DC01CB01801B910BE9
:1002B000A20BB30B4097A105B10568F00E94150190
:1002C00060930601709307018093080190930901E0
:1002D00081E0809323011F910F910895CF93C82F40
:1002E000813061F188F08230F1F08330A9F560E06F
:1002F00087E00E94A90060E086E00E94A90060E01B
:1003000085E0CF910C94A90060E086E00E94A900EE
:1003100060E085E00E94A90061E087E00E94A900FA
:100320001092040119C060E087E00E94A90060E01B
:1003300086E00E94A90061E085E00AC060E087E0F5
:100340000E94A90060E085E00E94A90061E086E0CB
:100350000E94A900C0930401CF91089580912201C9
:10036000882341F080911C01882311F081E003C0B3
:1003700080E001C082E00C946E011F920F920FB6D4
:100380000F9211242F933F938F939F93AF93BF931B
:100390008091130190911401A0911501B091160163
:1003A0003091120123E0230F2D3720F40196A11D77
:1003B000B11D05C026E8230F0296A11DB11D209393
:1003C00012018093130190931401A0931501B0932F
:1003D000160180910E0190910F01A0911001B09132
:1003E00011010196A11DB11D80930E0190930F0183
:1003F000A0931001B0931101BF91AF919F918F9184
:100400003F912F910F900FBE0F901F9018951F9244
:100410000F920FB60F9211242F933F934F935F9338
:100420006F937F938F939F93AF93BF93EF93FF93BC
:10043000E0910201F09103010995FF91EF91BF91C5
:10044000AF919F918F917F916F915F914F913F916C
:100450002F910F900FBE0F901F9018951F920F9223
:100460000FB60F9211242F933F934F935F936F9387
:100470007F938F939F93AF93BF93EF93FF93E091FD
:100480000001F09101010995FF91EF91BF91AF91AA
:100490009F918F917F916F915F914F913F912F919C
:1004A0000F900FBE0F901F901895789484B58260BE
:1004B00084BD84B5816084BD85B5826085BD85B508
:1004C000816085BD80916E00816080936E00109286
:1004D0008100809181008260809381008091810001
:1004E0008160809381008091800081608093800092
:1004F0008091B10084608093B1008091B0008160F0
:100500008093B00080917A00846080937A0080911B
:100510007A00826080937A0080917A008160809373
:100520007A0080917A00806880937A001092C100EE
:1005300061E08DE00E94D90061E08CE00E94D9006A
:1005400062E083E00E94D90062E082E00E94D9006C
:1005500061E087E00E94D90061E086E00E94D90056
:1005600061E085E00E94D90061E08DE00E94A90071
:1005700061E08CE00E94A90088E491E09093010181
:100580008093000180916900836080936900E89AFC
:1005900082E291E0909303018093020180916900CF
:1005A000837F846080936900E99A0E94AE01AA2447
:1005B000A394C1EBD0E00DE910E039E8E32E30E080
:1005C000F32E40E0C42E40E0D42EBB24B39480919F
:1005D0002301882301F1109223018091220160E020
:1005E000811108C08DE00E94A900B09222011092F2
:1005F00021010FC08CE00E94A9000E9415016093A8
:100600001D0170931E0180931F0190932001B092F1
:1006100021010E94AE0140901D0150901E0160908A
:100620001F01709020014114510461047104A9F16B
:100630000E941501DC01CB0184199509A609B709AF
:100640008138994AA340B10590F061E08DE00E94A5
:10065000A900109222011092210110921D01109206
:100660001E0110921F01109220010E94AE01809184
:100670001C01811112C061E08DE00E94A90010925E
:1006800022011092210110921D0110921E01109260
:100690001F01109220010E94AE0180911B0188234E
:1006A000F1F010921B01FE018491F8018490F70192
:1006B0009490992009F447C081110E948000892DEF
:1006C00090E0880F991F84589F4FFC01A591B49129
:1006D0008C918822C1F1B0921C010E94AE018091E0
:1006E0002101882349F10E94150140901701509083
:1006F00018016090190170901A01DC01CB01841976
:100700009509A609B709853F9140A105B105A0F05B
:10071000909005019920D1F083E00E946E019A2407
:10072000909205010E9415016093170170931801C2
:100730008093190190931A01C114D10409F447CF91
:100740000E94000044CF10921C01C7CF8091040189
:06075000E4CFF894FFCF96
:0607560021012101030155
:00000001FF
