:100000000C9461000C942E020C9407020C947E0058
:100010000C947E000C947E000C947E000C947E0068
:100020000C947E000C947E000C947E000C947E0058
:100030000C947E000C947E000C947E000C947E0048
:100040000C94BD010C947E000C947E000C947E00F8
:100050000C947E000C947E000C947E000C947E0028
:100060000C947E000C947E00000000002400270009
:100070002A0000000000250028002B0000000000DE
:1000800023002600290004040404040404040202DA
:100090000202020203030303030301020408102007
:1000A0004080010204081020010204081020000012
:1000B0000008000201000003040700000000000027
:1000C000000011241FBECFEFD8E0DEBFCDBF11E08E
:1000D000A0E0B1E0E6E5F7E002C005900D92A630A1
:1000E000B107D9F721E0A6E0B1E001C01D92A4322A
:1000F000B207E1F70E9455020C94A9030C9400008A
:10010000833081F028F4813099F08230A1F0089595
:100110008730A9F08830B9F08430D1F48091800024
:100120008F7D03C0809180008F7780938000089539
:1001300084B58F7702C084B58F7D84BD089580918A
:10014000B0008F7703C08091B0008F7D8093B000A6
:1001500008951F93CF93DF93282F30E0F901E255E4
:10016000FF4F8491F901E656FF4FD491F901EA5708
:10017000FF4FC491CC23C9F0162F81110E9480003B
:10018000EC2FF0E0EE0FFF1FEE58FF4FA591B4915A
:100190008FB7F894111105C09C91ED2FE095E923DC
:1001A00002C0EC91ED2BEC938FBFDF91CF911F91AB
:1001B0000895CF93DF9390E0FC01E656FF4F249122
:1001C000FC01EA57FF4F8491882361F190E0880F8A
:1001D000991FFC01E859FF4FC591D491FC01EE58DD
:1001E000FF4FA591B491611109C09FB7F894888120
:1001F000209582238883EC912E230BC0623061F41A
:100200009FB7F8943881822F809583238883EC915F
:100210002E2B2C939FBF06C08FB7F894E8812E2B0E
:1002200028838FBFDF91CF9108952FB7F894609105
:1002300013017091140180911501909116012FBF47
:10024000089508950F931F930E94150100910A01CC
:1002500010910B0120910C0130910D01DC01CB01BB
:10026000801B910BA20BB30B4097A105B10568F061
:100270000E94150160930A0170930B0180930C0199
:1002800090930D0181E080931B011F910F910895C0
:100290000F931F930E941501009106011091070111
:1002A0002091080130910901DC01CB01801B910BE9
:1002B000A20BB30B4097A105B10568F00E94150190
:1002C00060930601709307018093080190930901E0
:1002D00081E0809323011F910F910895CF93C82F40
:1002E000813061F188F08230F1F08330A9F560E06F
:1002F00087E00E94A90060E086E00E94A90060E01B
:1003000085E0CF910C94A90060E086E00E94A900EE
:1003100060E085E00E94A90061E087E00E94A900FA
:100320001092040119C060E087E00E94A90060E01B
:1003300086E00E94A90061E085E00AC060E087E0F5
:100340000E94A90060E085E00E94A90061E086E0CB
:100350000E94A900C0930401CF91089580912201C9
:10036000882341F080911C01882311F081E003C0B3
:1003700080E001C082E00C946E011F920F920FB6D4
:100380000F9211242F933F938F939F93AF93BF931B
:100390008091130190911401A0911501B091160163
:1003A0003091120123E0230F2D3720F40196A11D77
:1003B000B11D05C026E8230F0296A11DB11D209393
:1003C00012018093130190931401A0931501B0932F
:1003D000160180910E0190910F01A0911001B09132
:1003E00011010196A11DB11D80930E0190930F0183
:1003F000A0931001B0931101BF91AF919F918F9184
:100400003F912F910F900FBE0F901F9018951F9244
:100410000F920FB60F9211242F933F934F935F9338
:100420006F937F938F939F93AF93BF93EF93FF93BC
:10043000E0910201F09103010995FF91EF91BF91C5
:10044000AF919F918F917F916F915F914F913F916C
:100450002F910F900FBE0F901F9018951F920F9223
:100460000FB60F9211242F933F934F935F936F9387
:100470007F938F939F93AF93BF93EF93FF93E091FD
:100480000001F09101010995FF91EF91BF91AF91AA
:100490009F918F917F916F915F914F913F912F919C
:1004A0000F900FBE0F901F901895789484B58260BE
:1004B00084BD84B5816084BD85B5826085BD85B508
:1004C000816085BD80916E00816080936E00109286
:1004D0008100809181008260809381008091810001
:1004E0008160809381008091800081608093800092
:1004F0008091B10084608093B1008091B0008160F0
:100500008093B00080917A00846080937A0080911B
:100510007A00826080937A0080917A008160809373
:100520007A0080917A00806880937A001092C100EE
:1005300061E08DE00E94D90061E08CE00E94D9006A
:1005400062E083E00E94D90062E082E00E94D9006C
:1005500061E087E00E94D90061E086E00E94D90056
:1005600061E085E00E94D90061E08DE00E94A90071
:1005700061E08CE00E94A90088E491E09093010181
:100580008093000180916900836080936900E89AFC
:1005900082E291E0909303018093020180916900CF
:1005A000837F846080936900E99A0E94AE01AA2447
:1005B000A394C1EBD0E00DE910E039E8E32E30E080
:1005C000F32E40E0C42E40E0D42EBB24B39480919F
:1005D0002301882301F1109223018091220160E020
:1005E000811108C08DE00E94A900B09222011092F2
:1005F00021010FC08CE00E94A9000E9415016093A8
:100600001D0170931E0180931F0190932001B092F1
:1006100021010E94AE0140901D0150901E0160908A
:100620001F01709020014114510461047104A9F16B
:100630000E941501DC01CB0184199509A609B709AF
:100640008138994AA340B10590F061E08DE00E94A5
:10065000A900109222011092210110921D01109206
:100660001E0110921F01109220010E94AE01809184
:100670001C01811112C061E08DE00E94A90010925E
:1006800022011092210110921D0110921E01109260
:100690001F01109220010E94AE0180911B0188234E
:1006A000F1F010921B01FE018491F8018490F70192
:1006B0009490992009F447C081110E948000892DEF
:1006C00090E0880F991F84589F4FFC01A591B49129
:1006D0008C918822C1F1B0921C010E94AE018091E0
:1006E0002101882349F10E94150140901701509083
:1006F00018016090190170901A01DC01CB01841976
:100700009509A609B709853F9140A105B105A0F05B
:10071000909005019920D1F083E00E946E019A2407
:10072000909205010E9415016093170170931801C2
:100730008093190190931A01C114D10409F447CF91
:100740000E94000044CF10921C01C7CF8091040189
:06075000E4CFF894FFCF96
:0607560021012101030155
:107800000C94343C0C94513C0C94513C0C94513CE1
:107810000C94513C0C94513C0C94513C0C94513CB4
:107820000C94513C0C94513C0C94513C0C94513CA4
:107830000C94513C0C94513C0C94513C0C94513C94
:107840000C94513C0C94513C0C94513C0C94513C84
:107850000C94513C0C94513C0C94513C0C94513C74
:107860000C94513C0C94513C11241FBECFEFD8E036
:10787000DEBFCDBF11E0A0E0B1E0ECE9FFE702C060
:1078800005900D92A230B107D9F712E0A2E0B1E065
:1078900001C01D92AD30B107E1F70E942D3D0C945F
:1078A000CC3F0C94003C982F959595959595959582
:1078B000905D8F708A307CF0282F295A8091C0000B
:1078C00085FFFCCF9093C6008091C00085FFFCCF60
:1078D0002093C6000895282F205DF0CF982F809127
:1078E000C00085FFFCCF9093C6000895EF92FF92F1
:1078F0000F931F93EE24FF2487018091C00087FD22
:1079000017C00894E11CF11C011D111D81E4E8164B
:1079100082E4F8068FE0080780E0180770F3E09132
:107920000401F091050109958091C00087FFE9CF1E
:107930008091C6001F910F91FF90EF9008950E94D3
:10794000763C982F8091C00085FFFCCF9093C600B5
:1079500091362CF490330CF09053892F089597555D
:10796000892F08951F930E949F3C182F0E949F3CCF
:107970001295107F810F1F9108951F93182F882350
:1079800021F00E94763C1150E1F71F9108951F935A
:10799000182F0E94763C803249F0809103018F5F5E
:1079A000809303018530C1F01F9108958091C0003C
:1079B00085FFFCCF84E18093C6008091C00085FFE5
:1079C000FCCF1093C6008091C00085FFFCCF80E102
:1079D0008093C6001F910895E0910401F091050184
:1079E00009951F9108950E94763C803241F0809164
:1079F00003018F5F80930301853081F008958091AA
:107A0000C00085FFFCCF84E18093C6008091C00058
:107A100085FFFCCF80E18093C6000895E0910401CA
:107A2000F09105010995089540E951E08823A1F0FE
:107A30002D9A28EE33E0FA013197F1F721503040CA
:107A4000D1F72D9828EE33E0FA013197F1F7215064
:107A50003040D1F7815061F708953F924F925F9285
:107A60006F927F928F929F92AF92BF92CF92DF924E
:107A7000EF92FF920F931F93CF93DF93000080E16B
:107A80008093C4001092C50088E18093C10086E015
:107A90008093C2005098589A259A81E00E94143D24
:107AA00024E1F22E9EE1E92E85E9D82E0FE0C02ECA
:107AB00010E1B12EAA24A394B1E49B2EA6E58A2E50
:107AC000F2E57F2EE0E26E2E79E4572E63E5462E36
:107AD00050E5352E0E94763C8033B1F18133B9F107
:107AE000803409F46FC0813409F476C0823409F41B
:107AF00085C0853409F488C0803531F1823521F1A3
:107B0000813511F1853509F485C0863509F48DC0BC
:107B1000843609F496C0843709F403C1853709F423
:107B200072C1863709F466C0809103018F5F80932C
:107B30000301853079F6E0910401F0910501099582
:107B40000E94763C803351F60E94F33CC3CF0E94E2
:107B5000763C803249F78091C00085FFFCCFF092DF
:107B6000C6008091C00085FFFCCF9092C600809136
:107B7000C00085FFFCCF8092C6008091C00085FFC9
:107B8000FCCF7092C6008091C00085FFFCCF609250
:107B9000C6008091C00085FFFCCF5092C600809146
:107BA000C00085FFFCCF4092C6008091C00085FFD9
:107BB000FCCF3092C6008091C00085FFFCCFB09210
:107BC000C60088CF0E94763C863808F4BDCF0E945C
:107BD000763C0E94F33C7ECF0E94763C803809F4CC
:107BE0009CC0813809F40BC1823809F43CC1883942
:107BF00009F48FC080E00E94C73C6CCF84E10E94F2
:107C0000BD3C0E94F33C66CF85E00E94BD3C0E94D3
:107C1000F33C60CF0E94763C809306010E94763C44
:107C2000809307010E94F33C55CF0E94763C80333D
:107C300009F41DC183E00E94BD3C80E00E94C73C66
:107C400049CF0E94763C809309020E94763C809343
:107C5000080280910C028E7F80930C020E94763C79
:107C6000853409F415C18091080290910902892B8D
:107C700089F000E010E00E94763CF801E85FFE4FDA
:107C800080830F5F1F4F80910802909109020817AF
:107C9000190788F30E94763C803209F045CF809125
:107CA0000C0280FF01C16091060170910701660F0F
:107CB000771F7093070160930601A0910802B091AD
:107CC00009021097C9F0E8E0F1E09B01AD014E0F09
:107CD0005F1FF999FECF32BD21BD819180BDFA9A17
:107CE000F99A2F5F3F4FE417F50799F76A0F7B1F4B
:107CF00070930701609306018091C00085FFFCCF5F
:107D0000F092C6008091C00085FFFCCFB092C60003
:107D1000E1CE83E00E94C73CDDCE82E00E94C73CFA
:107D2000D9CE0E94763C809309020E94763C8093D3
:107D300008028091060190910701880F991F909386
:107D40000701809306010E94763C853409F4A6C0A1
:107D500080910C028E7F80930C020E94763C8032D0
:107D600009F0B8CE8091C00085FFFCCFF092C6002C
:107D7000609108027091090261157105B9F140E046
:107D800050E080910C02A82FA170B82FB27011C0E2
:107D9000BB2309F45CC0E0910601F0910701319624
:107DA000F0930701E09306014F5F5F4F46175707B7
:107DB000E8F4AA2369F3F999FECF209106013091E6
:107DC000070132BD21BDF89A90B58091C00085FFB2
:107DD000FCCF9093C6002F5F3F4F30930701209355
:107DE00006014F5F5F4F4617570718F38091C00099
:107DF00085FDE5CE8091C00085FFF8CFE0CE81E023
:107E00000E94C73C67CE0E94763C803209F08CCE3F
:107E10008091C00085FFFCCFF092C6008091C00029
:107E200085FFFCCFE092C6008091C00085FFFCCFAB
:107E3000D092C6008091C00085FFFCCFC092C600E2
:107E40008091C00085FFFCCFB092C60043CEE09188
:107E50000601F091070194918091C00085FFFCCF4D
:107E60009093C6009CCF80E10E94C73C33CE0E9415
:107E7000763C0E94763C182F0E94763C112309F430
:107E800083C0113009F484C08FE00E94C73C22CE29
:107E900080910C02816080930C02E5CE80910C02EF
:107EA000816080930C0259CF809107018823880F4D
:107EB000880B8A2180930B02809106019091070123
:107EC000880F991F90930701809306018091080203
:107ED00080FF09C080910802909109020196909359
:107EE000090280930802F894F999FECF1127E091D6
:107EF0000601F0910701C8E0D1E08091080290915D
:107F00000902103091F40091570001700130D9F34B
:107F100003E000935700E89500915700017001308D
:107F2000D9F301E100935700E89509901990009169
:107F3000570001700130D9F301E000935700E89534
:107F40001395103498F011270091570001700130FB
:107F5000D9F305E000935700E895009157000170B0
:107F60000130D9F301E100935700E895329602976A
:107F700009F0C7CF103011F00296E5CF112480919F
:107F8000C00085FFB9CEBCCE8EE10E94C73CA2CD19
:0C7F900085E90E94C73C9ECDF894FFCF0D
:027F9C00800063
:040000030000780081
:00000001FF